{
  "contractName": "Color",
  "abi": [
    {
      "inputs": [],
      "stateMutability": "nonpayable",
      "type": "constructor"
    },
    {
      "anonymous": false,
      "inputs": [
        {
          "indexed": true,
          "internalType": "address",
          "name": "owner",
          "type": "address"
        },
        {
          "indexed": true,
          "internalType": "address",
          "name": "approved",
          "type": "address"
        },
        {
          "indexed": true,
          "internalType": "uint256",
          "name": "tokenId",
          "type": "uint256"
        }
      ],
      "name": "Approval",
      "type": "event"
    },
    {
      "anonymous": false,
      "inputs": [
        {
          "indexed": true,
          "internalType": "address",
          "name": "owner",
          "type": "address"
        },
        {
          "indexed": true,
          "internalType": "address",
          "name": "operator",
          "type": "address"
        },
        {
          "indexed": false,
          "internalType": "bool",
          "name": "approved",
          "type": "bool"
        }
      ],
      "name": "ApprovalForAll",
      "type": "event"
    },
    {
      "anonymous": false,
      "inputs": [
        {
          "indexed": true,
          "internalType": "address",
          "name": "from",
          "type": "address"
        },
        {
          "indexed": true,
          "internalType": "address",
          "name": "to",
          "type": "address"
        },
        {
          "indexed": true,
          "internalType": "uint256",
          "name": "tokenId",
          "type": "uint256"
        }
      ],
      "name": "Transfer",
      "type": "event"
    },
    {
      "inputs": [
        {
          "internalType": "address",
          "name": "to",
          "type": "address"
        },
        {
          "internalType": "uint256",
          "name": "tokenId",
          "type": "uint256"
        }
      ],
      "name": "approve",
      "outputs": [],
      "stateMutability": "nonpayable",
      "type": "function"
    },
    {
      "inputs": [
        {
          "internalType": "address",
          "name": "owner",
          "type": "address"
        }
      ],
      "name": "balanceOf",
      "outputs": [
        {
          "internalType": "uint256",
          "name": "",
          "type": "uint256"
        }
      ],
      "stateMutability": "view",
      "type": "function",
      "constant": true
    },
    {
      "inputs": [
        {
          "internalType": "uint256",
          "name": "",
          "type": "uint256"
        }
      ],
      "name": "colors",
      "outputs": [
        {
          "internalType": "string",
          "name": "",
          "type": "string"
        }
      ],
      "stateMutability": "view",
      "type": "function",
      "constant": true
    },
    {
      "inputs": [
        {
          "internalType": "uint256",
          "name": "tokenId",
          "type": "uint256"
        }
      ],
      "name": "getApproved",
      "outputs": [
        {
          "internalType": "address",
          "name": "",
          "type": "address"
        }
      ],
      "stateMutability": "view",
      "type": "function",
      "constant": true
    },
    {
      "inputs": [
        {
          "internalType": "address",
          "name": "owner",
          "type": "address"
        },
        {
          "internalType": "address",
          "name": "operator",
          "type": "address"
        }
      ],
      "name": "isApprovedForAll",
      "outputs": [
        {
          "internalType": "bool",
          "name": "",
          "type": "bool"
        }
      ],
      "stateMutability": "view",
      "type": "function",
      "constant": true
    },
    {
      "inputs": [],
      "name": "name",
      "outputs": [
        {
          "internalType": "string",
          "name": "",
          "type": "string"
        }
      ],
      "stateMutability": "view",
      "type": "function",
      "constant": true
    },
    {
      "inputs": [
        {
          "internalType": "uint256",
          "name": "tokenId",
          "type": "uint256"
        }
      ],
      "name": "ownerOf",
      "outputs": [
        {
          "internalType": "address",
          "name": "",
          "type": "address"
        }
      ],
      "stateMutability": "view",
      "type": "function",
      "constant": true
    },
    {
      "inputs": [
        {
          "internalType": "address",
          "name": "from",
          "type": "address"
        },
        {
          "internalType": "address",
          "name": "to",
          "type": "address"
        },
        {
          "internalType": "uint256",
          "name": "tokenId",
          "type": "uint256"
        }
      ],
      "name": "safeTransferFrom",
      "outputs": [],
      "stateMutability": "nonpayable",
      "type": "function"
    },
    {
      "inputs": [
        {
          "internalType": "address",
          "name": "from",
          "type": "address"
        },
        {
          "internalType": "address",
          "name": "to",
          "type": "address"
        },
        {
          "internalType": "uint256",
          "name": "tokenId",
          "type": "uint256"
        },
        {
          "internalType": "bytes",
          "name": "data",
          "type": "bytes"
        }
      ],
      "name": "safeTransferFrom",
      "outputs": [],
      "stateMutability": "nonpayable",
      "type": "function"
    },
    {
      "inputs": [
        {
          "internalType": "address",
          "name": "operator",
          "type": "address"
        },
        {
          "internalType": "bool",
          "name": "approved",
          "type": "bool"
        }
      ],
      "name": "setApprovalForAll",
      "outputs": [],
      "stateMutability": "nonpayable",
      "type": "function"
    },
    {
      "inputs": [
        {
          "internalType": "bytes4",
          "name": "interfaceId",
          "type": "bytes4"
        }
      ],
      "name": "supportsInterface",
      "outputs": [
        {
          "internalType": "bool",
          "name": "",
          "type": "bool"
        }
      ],
      "stateMutability": "view",
      "type": "function",
      "constant": true
    },
    {
      "inputs": [],
      "name": "symbol",
      "outputs": [
        {
          "internalType": "string",
          "name": "",
          "type": "string"
        }
      ],
      "stateMutability": "view",
      "type": "function",
      "constant": true
    },
    {
      "inputs": [
        {
          "internalType": "uint256",
          "name": "index",
          "type": "uint256"
        }
      ],
      "name": "tokenByIndex",
      "outputs": [
        {
          "internalType": "uint256",
          "name": "",
          "type": "uint256"
        }
      ],
      "stateMutability": "view",
      "type": "function",
      "constant": true
    },
    {
      "inputs": [
        {
          "internalType": "address",
          "name": "owner",
          "type": "address"
        },
        {
          "internalType": "uint256",
          "name": "index",
          "type": "uint256"
        }
      ],
      "name": "tokenOfOwnerByIndex",
      "outputs": [
        {
          "internalType": "uint256",
          "name": "",
          "type": "uint256"
        }
      ],
      "stateMutability": "view",
      "type": "function",
      "constant": true
    },
    {
      "inputs": [
        {
          "internalType": "uint256",
          "name": "tokenId",
          "type": "uint256"
        }
      ],
      "name": "tokenURI",
      "outputs": [
        {
          "internalType": "string",
          "name": "",
          "type": "string"
        }
      ],
      "stateMutability": "view",
      "type": "function",
      "constant": true
    },
    {
      "inputs": [],
      "name": "totalSupply",
      "outputs": [
        {
          "internalType": "uint256",
          "name": "",
          "type": "uint256"
        }
      ],
      "stateMutability": "view",
      "type": "function",
      "constant": true
    },
    {
      "inputs": [
        {
          "internalType": "address",
          "name": "from",
          "type": "address"
        },
        {
          "internalType": "address",
          "name": "to",
          "type": "address"
        },
        {
          "internalType": "uint256",
          "name": "tokenId",
          "type": "uint256"
        }
      ],
      "name": "transferFrom",
      "outputs": [],
      "stateMutability": "nonpayable",
      "type": "function"
    },
    {
      "inputs": [
        {
          "internalType": "string",
          "name": "_color",
          "type": "string"
        }
      ],
      "name": "mint",
      "outputs": [],
      "stateMutability": "nonpayable",
      "type": "function"
    }
  ],
  "bytecode": "0x60806040523480156200001157600080fd5b506040518060400160405280600581526020017f436f6c6f720000000000000000000000000000000000000000000000000000008152506040518060400160405280600581526020017f434f4c4f52000000000000000000000000000000000000000000000000000000815250816000908051906020019062000096929190620000b8565b508060019080519060200190620000af929190620000b8565b505050620001cd565b828054620000c69062000168565b90600052602060002090601f016020900481019282620000ea576000855562000136565b82601f106200010557805160ff191683800117855562000136565b8280016001018555821562000136579182015b828111156200013557825182559160200191906001019062000118565b5b50905062000145919062000149565b5090565b5b80821115620001645760008160009055506001016200014a565b5090565b600060028204905060018216806200018157607f821691505b602082108114156200019857620001976200019e565b5b50919050565b7f4e487b7100000000000000000000000000000000000000000000000000000000600052602260045260246000fd5b612fb280620001dd6000396000f3fe608060405234801561001057600080fd5b50600436106101165760003560e01c80636352211e116100a2578063b88d4fde11610071578063b88d4fde14610305578063bd11f69d14610321578063c87b56dd14610351578063d85d3d2714610381578063e985e9c51461039d57610116565b80636352211e1461026b57806370a082311461029b57806395d89b41146102cb578063a22cb465146102e957610116565b806318160ddd116100e957806318160ddd146101b557806323b872dd146101d35780632f745c59146101ef57806342842e0e1461021f5780634f6ccce71461023b57610116565b806301ffc9a71461011b57806306fdde031461014b578063081812fc14610169578063095ea7b314610199575b600080fd5b610135600480360381019061013091906121e3565b6103cd565b60405161014291906125d8565b60405180910390f35b610153610447565b60405161016091906125f3565b60405180910390f35b610183600480360381019061017e9190612276565b6104d9565b6040516101909190612571565b60405180910390f35b6101b360048036038101906101ae91906121a7565b61051f565b005b6101bd610637565b6040516101ca91906127b5565b60405180910390f35b6101ed60048036038101906101e891906120a1565b610644565b005b610209600480360381019061020491906121a7565b6106a4565b60405161021691906127b5565b60405180910390f35b610239600480360381019061023491906120a1565b610749565b005b61025560048036038101906102509190612276565b610769565b60405161026291906127b5565b60405180910390f35b61028560048036038101906102809190612276565b610800565b6040516102929190612571565b60405180910390f35b6102b560048036038101906102b0919061203c565b6108b2565b6040516102c291906127b5565b60405180910390f35b6102d361096a565b6040516102e091906125f3565b60405180910390f35b61030360048036038101906102fe919061216b565b6109fc565b005b61031f600480360381019061031a91906120f0565b610a12565b005b61033b60048036038101906103369190612276565b610a74565b60405161034891906125f3565b60405180910390f35b61036b60048036038101906103669190612276565b610b20565b60405161037891906125f3565b60405180910390f35b61039b60048036038101906103969190612235565b610b88565b005b6103b760048036038101906103b29190612065565b610c55565b6040516103c491906125d8565b60405180910390f35b60007f780e9d63000000000000000000000000000000000000000000000000000000007bffffffffffffffffffffffffffffffffffffffffffffffffffffffff1916827bffffffffffffffffffffffffffffffffffffffffffffffffffffffff19161480610440575061043f82610ce9565b5b9050919050565b60606000805461045690612a0b565b80601f016020809104026020016040519081016040528092919081815260200182805461048290612a0b565b80156104cf5780601f106104a4576101008083540402835291602001916104cf565b820191906000526020600020905b8154815290600101906020018083116104b257829003601f168201915b5050505050905090565b60006104e482610dcb565b6004600083815260200190815260200160002060009054906101000a900473ffffffffffffffffffffffffffffffffffffffff169050919050565b600061052a82610800565b90508073ffffffffffffffffffffffffffffffffffffffff168373ffffffffffffffffffffffffffffffffffffffff16141561059b576040517f08c379a000000000000000000000000000000000000000000000000000000000815260040161059290612755565b60405180910390fd5b8073ffffffffffffffffffffffffffffffffffffffff166105ba610e16565b73ffffffffffffffffffffffffffffffffffffffff1614806105e957506105e8816105e3610e16565b610c55565b5b610628576040517f08c379a000000000000000000000000000000000000000000000000000000000815260040161061f906126f5565b60405180910390fd5b6106328383610e1e565b505050565b6000600880549050905090565b61065561064f610e16565b82610ed7565b610694576040517f08c379a000000000000000000000000000000000000000000000000000000000815260040161068b90612795565b60405180910390fd5b61069f838383610f6c565b505050565b60006106af836108b2565b82106106f0576040517f08c379a00000000000000000000000000000000000000000000000000000000081526004016106e790612615565b60405180910390fd5b600660008473ffffffffffffffffffffffffffffffffffffffff1673ffffffffffffffffffffffffffffffffffffffff168152602001908152602001600020600083815260200190815260200160002054905092915050565b61076483838360405180602001604052806000815250610a12565b505050565b6000610773610637565b82106107b4576040517f08c379a00000000000000000000000000000000000000000000000000000000081526004016107ab90612775565b60405180910390fd5b600882815481106107ee577f4e487b7100000000000000000000000000000000000000000000000000000000600052603260045260246000fd5b90600052602060002001549050919050565b6000806002600084815260200190815260200160002060009054906101000a900473ffffffffffffffffffffffffffffffffffffffff169050600073ffffffffffffffffffffffffffffffffffffffff168173ffffffffffffffffffffffffffffffffffffffff1614156108a9576040517f08c379a00000000000000000000000000000000000000000000000000000000081526004016108a090612735565b60405180910390fd5b80915050919050565b60008073ffffffffffffffffffffffffffffffffffffffff168273ffffffffffffffffffffffffffffffffffffffff161415610923576040517f08c379a000000000000000000000000000000000000000000000000000000000815260040161091a906126d5565b60405180910390fd5b600360008373ffffffffffffffffffffffffffffffffffffffff1673ffffffffffffffffffffffffffffffffffffffff168152602001908152602001600020549050919050565b60606001805461097990612a0b565b80601f01602080910402602001604051908101604052809291908181526020018280546109a590612a0b565b80156109f25780601f106109c7576101008083540402835291602001916109f2565b820191906000526020600020905b8154815290600101906020018083116109d557829003601f168201915b5050505050905090565b610a0e610a07610e16565b83836111d3565b5050565b610a23610a1d610e16565b83610ed7565b610a62576040517f08c379a0000000000000000000000000000000000000000000000000000000008152600401610a5990612795565b60405180910390fd5b610a6e84848484611340565b50505050565b600a8181548110610a8457600080fd5b906000526020600020016000915090508054610a9f90612a0b565b80601f0160208091040260200160405190810160405280929190818152602001828054610acb90612a0b565b8015610b185780601f10610aed57610100808354040283529160200191610b18565b820191906000526020600020905b815481529060010190602001808311610afb57829003601f168201915b505050505081565b6060610b2b82610dcb565b6000610b3561139c565b90506000815111610b555760405180602001604052806000815250610b80565b80610b5f846113b3565b604051602001610b7092919061254d565b6040516020818303038152906040525b915050919050565b600b81604051610b989190612536565b908152602001604051809103902060009054906101000a900460ff1615610bbe57600080fd5b600a81908060018154018082558091505060019003906000526020600020016000909190919091509080519060200190610bf9929190611e60565b5060006001600a80549050610c0e9190612921565b9050610c1a3382611560565b6001600b83604051610c2c9190612536565b908152602001604051809103902060006101000a81548160ff0219169083151502179055505050565b6000600560008473ffffffffffffffffffffffffffffffffffffffff1673ffffffffffffffffffffffffffffffffffffffff16815260200190815260200160002060008373ffffffffffffffffffffffffffffffffffffffff1673ffffffffffffffffffffffffffffffffffffffff16815260200190815260200160002060009054906101000a900460ff16905092915050565b60007f80ac58cd000000000000000000000000000000000000000000000000000000007bffffffffffffffffffffffffffffffffffffffffffffffffffffffff1916827bffffffffffffffffffffffffffffffffffffffffffffffffffffffff19161480610db457507f5b5e139f000000000000000000000000000000000000000000000000000000007bffffffffffffffffffffffffffffffffffffffffffffffffffffffff1916827bffffffffffffffffffffffffffffffffffffffffffffffffffffffff1916145b80610dc45750610dc38261173a565b5b9050919050565b610dd4816117a4565b610e13576040517f08c379a0000000000000000000000000000000000000000000000000000000008152600401610e0a90612735565b60405180910390fd5b50565b600033905090565b816004600083815260200190815260200160002060006101000a81548173ffffffffffffffffffffffffffffffffffffffff021916908373ffffffffffffffffffffffffffffffffffffffff160217905550808273ffffffffffffffffffffffffffffffffffffffff16610e9183610800565b73ffffffffffffffffffffffffffffffffffffffff167f8c5be1e5ebec7d5bd14f71427d1e84f3dd0314c0f7b2291e5b200ac8c7c3b92560405160405180910390a45050565b600080610ee383610800565b90508073ffffffffffffffffffffffffffffffffffffffff168473ffffffffffffffffffffffffffffffffffffffff161480610f255750610f248185610c55565b5b80610f6357508373ffffffffffffffffffffffffffffffffffffffff16610f4b846104d9565b73ffffffffffffffffffffffffffffffffffffffff16145b91505092915050565b8273ffffffffffffffffffffffffffffffffffffffff16610f8c82610800565b73ffffffffffffffffffffffffffffffffffffffff1614610fe2576040517f08c379a0000000000000000000000000000000000000000000000000000000008152600401610fd990612655565b60405180910390fd5b600073ffffffffffffffffffffffffffffffffffffffff168273ffffffffffffffffffffffffffffffffffffffff161415611052576040517f08c379a000000000000000000000000000000000000000000000000000000000815260040161104990612695565b60405180910390fd5b61105d838383611810565b611068600082610e1e565b6001600360008573ffffffffffffffffffffffffffffffffffffffff1673ffffffffffffffffffffffffffffffffffffffff16815260200190815260200160002060008282546110b89190612921565b925050819055506001600360008473ffffffffffffffffffffffffffffffffffffffff1673ffffffffffffffffffffffffffffffffffffffff168152602001908152602001600020600082825461110f919061289a565b92505081905550816002600083815260200190815260200160002060006101000a81548173ffffffffffffffffffffffffffffffffffffffff021916908373ffffffffffffffffffffffffffffffffffffffff160217905550808273ffffffffffffffffffffffffffffffffffffffff168473ffffffffffffffffffffffffffffffffffffffff167fddf252ad1be2c89b69c2b068fc378daa952ba7f163c4a11628f55a4df523b3ef60405160405180910390a46111ce838383611924565b505050565b8173ffffffffffffffffffffffffffffffffffffffff168373ffffffffffffffffffffffffffffffffffffffff161415611242576040517f08c379a0000000000000000000000000000000000000000000000000000000008152600401611239906126b5565b60405180910390fd5b80600560008573ffffffffffffffffffffffffffffffffffffffff1673ffffffffffffffffffffffffffffffffffffffff16815260200190815260200160002060008473ffffffffffffffffffffffffffffffffffffffff1673ffffffffffffffffffffffffffffffffffffffff16815260200190815260200160002060006101000a81548160ff0219169083151502179055508173ffffffffffffffffffffffffffffffffffffffff168373ffffffffffffffffffffffffffffffffffffffff167f17307eab39ab6107e8899845ad3d59bd9653f200f220920489ca2b5937696c318360405161133391906125d8565b60405180910390a3505050565b61134b848484610f6c565b61135784848484611929565b611396576040517f08c379a000000000000000000000000000000000000000000000000000000000815260040161138d90612635565b60405180910390fd5b50505050565b606060405180602001604052806000815250905090565b606060008214156113fb576040518060400160405280600181526020017f3000000000000000000000000000000000000000000000000000000000000000815250905061155b565b600082905060005b6000821461142d57808061141690612a6e565b915050600a8261142691906128f0565b9150611403565b60008167ffffffffffffffff81111561146f577f4e487b7100000000000000000000000000000000000000000000000000000000600052604160045260246000fd5b6040519080825280601f01601f1916602001820160405280156114a15781602001600182028036833780820191505090505b5090505b60008514611554576001826114ba9190612921565b9150600a856114c99190612ab7565b60306114d5919061289a565b60f81b818381518110611511577f4e487b7100000000000000000000000000000000000000000000000000000000600052603260045260246000fd5b60200101907effffffffffffffffffffffffffffffffffffffffffffffffffffffffffffff1916908160001a905350600a8561154d91906128f0565b94506114a5565b8093505050505b919050565b600073ffffffffffffffffffffffffffffffffffffffff168273ffffffffffffffffffffffffffffffffffffffff1614156115d0576040517f08c379a00000000000000000000000000000000000000000000000000000000081526004016115c790612715565b60405180910390fd5b6115d9816117a4565b15611619576040517f08c379a000000000000000000000000000000000000000000000000000000000815260040161161090612675565b60405180910390fd5b61162560008383611810565b6001600360008473ffffffffffffffffffffffffffffffffffffffff1673ffffffffffffffffffffffffffffffffffffffff1681526020019081526020016000206000828254611675919061289a565b92505081905550816002600083815260200190815260200160002060006101000a81548173ffffffffffffffffffffffffffffffffffffffff021916908373ffffffffffffffffffffffffffffffffffffffff160217905550808273ffffffffffffffffffffffffffffffffffffffff16600073ffffffffffffffffffffffffffffffffffffffff167fddf252ad1be2c89b69c2b068fc378daa952ba7f163c4a11628f55a4df523b3ef60405160405180910390a461173660008383611924565b5050565b60007f01ffc9a7000000000000000000000000000000000000000000000000000000007bffffffffffffffffffffffffffffffffffffffffffffffffffffffff1916827bffffffffffffffffffffffffffffffffffffffffffffffffffffffff1916149050919050565b60008073ffffffffffffffffffffffffffffffffffffffff166002600084815260200190815260200160002060009054906101000a900473ffffffffffffffffffffffffffffffffffffffff1673ffffffffffffffffffffffffffffffffffffffff1614159050919050565b61181b838383611ac0565b600073ffffffffffffffffffffffffffffffffffffffff168373ffffffffffffffffffffffffffffffffffffffff16141561185e5761185981611ac5565b61189d565b8173ffffffffffffffffffffffffffffffffffffffff168373ffffffffffffffffffffffffffffffffffffffff161461189c5761189b8382611b0e565b5b5b600073ffffffffffffffffffffffffffffffffffffffff168273ffffffffffffffffffffffffffffffffffffffff1614156118e0576118db81611c7b565b61191f565b8273ffffffffffffffffffffffffffffffffffffffff168273ffffffffffffffffffffffffffffffffffffffff161461191e5761191d8282611dbe565b5b5b505050565b505050565b600061194a8473ffffffffffffffffffffffffffffffffffffffff16611e3d565b15611ab3578373ffffffffffffffffffffffffffffffffffffffff1663150b7a02611973610e16565b8786866040518563ffffffff1660e01b8152600401611995949392919061258c565b602060405180830381600087803b1580156119af57600080fd5b505af19250505080156119e057506040513d601f19601f820116820180604052508101906119dd919061220c565b60015b611a63573d8060008114611a10576040519150601f19603f3d011682016040523d82523d6000602084013e611a15565b606091505b50600081511415611a5b576040517f08c379a0000000000000000000000000000000000000000000000000000000008152600401611a5290612635565b60405180910390fd5b805181602001fd5b63150b7a0260e01b7bffffffffffffffffffffffffffffffffffffffffffffffffffffffff1916817bffffffffffffffffffffffffffffffffffffffffffffffffffffffff191614915050611ab8565b600190505b949350505050565b505050565b6008805490506009600083815260200190815260200160002081905550600881908060018154018082558091505060019003906000526020600020016000909190919091505550565b60006001611b1b846108b2565b611b259190612921565b9050600060076000848152602001908152602001600020549050818114611c0a576000600660008673ffffffffffffffffffffffffffffffffffffffff1673ffffffffffffffffffffffffffffffffffffffff168152602001908152602001600020600084815260200190815260200160002054905080600660008773ffffffffffffffffffffffffffffffffffffffff1673ffffffffffffffffffffffffffffffffffffffff168152602001908152602001600020600084815260200190815260200160002081905550816007600083815260200190815260200160002081905550505b6007600084815260200190815260200160002060009055600660008573ffffffffffffffffffffffffffffffffffffffff1673ffffffffffffffffffffffffffffffffffffffff16815260200190815260200160002060008381526020019081526020016000206000905550505050565b60006001600880549050611c8f9190612921565b9050600060096000848152602001908152602001600020549050600060088381548110611ce5577f4e487b7100000000000000000000000000000000000000000000000000000000600052603260045260246000fd5b906000526020600020015490508060088381548110611d2d577f4e487b7100000000000000000000000000000000000000000000000000000000600052603260045260246000fd5b906000526020600020018190555081600960008381526020019081526020016000208190555060096000858152602001908152602001600020600090556008805480611da2577f4e487b7100000000000000000000000000000000000000000000000000000000600052603160045260246000fd5b6001900381819060005260206000200160009055905550505050565b6000611dc9836108b2565b905081600660008573ffffffffffffffffffffffffffffffffffffffff1673ffffffffffffffffffffffffffffffffffffffff168152602001908152602001600020600083815260200190815260200160002081905550806007600084815260200190815260200160002081905550505050565b6000808273ffffffffffffffffffffffffffffffffffffffff163b119050919050565b828054611e6c90612a0b565b90600052602060002090601f016020900481019282611e8e5760008555611ed5565b82601f10611ea757805160ff1916838001178555611ed5565b82800160010185558215611ed5579182015b82811115611ed4578251825591602001919060010190611eb9565b5b509050611ee29190611ee6565b5090565b5b80821115611eff576000816000905550600101611ee7565b5090565b6000611f16611f11846127f5565b6127d0565b905082815260208101848484011115611f2e57600080fd5b611f398482856129c9565b509392505050565b6000611f54611f4f84612826565b6127d0565b905082815260208101848484011115611f6c57600080fd5b611f778482856129c9565b509392505050565b600081359050611f8e81612f20565b92915050565b600081359050611fa381612f37565b92915050565b600081359050611fb881612f4e565b92915050565b600081519050611fcd81612f4e565b92915050565b600082601f830112611fe457600080fd5b8135611ff4848260208601611f03565b91505092915050565b600082601f83011261200e57600080fd5b813561201e848260208601611f41565b91505092915050565b60008135905061203681612f65565b92915050565b60006020828403121561204e57600080fd5b600061205c84828501611f7f565b91505092915050565b6000806040838503121561207857600080fd5b600061208685828601611f7f565b925050602061209785828601611f7f565b9150509250929050565b6000806000606084860312156120b657600080fd5b60006120c486828701611f7f565b93505060206120d586828701611f7f565b92505060406120e686828701612027565b9150509250925092565b6000806000806080858703121561210657600080fd5b600061211487828801611f7f565b945050602061212587828801611f7f565b935050604061213687828801612027565b925050606085013567ffffffffffffffff81111561215357600080fd5b61215f87828801611fd3565b91505092959194509250565b6000806040838503121561217e57600080fd5b600061218c85828601611f7f565b925050602061219d85828601611f94565b9150509250929050565b600080604083850312156121ba57600080fd5b60006121c885828601611f7f565b92505060206121d985828601612027565b9150509250929050565b6000602082840312156121f557600080fd5b600061220384828501611fa9565b91505092915050565b60006020828403121561221e57600080fd5b600061222c84828501611fbe565b91505092915050565b60006020828403121561224757600080fd5b600082013567ffffffffffffffff81111561226157600080fd5b61226d84828501611ffd565b91505092915050565b60006020828403121561228857600080fd5b600061229684828501612027565b91505092915050565b6122a881612955565b82525050565b6122b781612967565b82525050565b60006122c882612857565b6122d2818561286d565b93506122e28185602086016129d8565b6122eb81612ba4565b840191505092915050565b600061230182612862565b61230b818561287e565b935061231b8185602086016129d8565b61232481612ba4565b840191505092915050565b600061233a82612862565b612344818561288f565b93506123548185602086016129d8565b80840191505092915050565b600061236d602b8361287e565b915061237882612bb5565b604082019050919050565b600061239060328361287e565b915061239b82612c04565b604082019050919050565b60006123b360258361287e565b91506123be82612c53565b604082019050919050565b60006123d6601c8361287e565b91506123e182612ca2565b602082019050919050565b60006123f960248361287e565b915061240482612ccb565b604082019050919050565b600061241c60198361287e565b915061242782612d1a565b602082019050919050565b600061243f60298361287e565b915061244a82612d43565b604082019050919050565b6000612462603e8361287e565b915061246d82612d92565b604082019050919050565b600061248560208361287e565b915061249082612de1565b602082019050919050565b60006124a860188361287e565b91506124b382612e0a565b602082019050919050565b60006124cb60218361287e565b91506124d682612e33565b604082019050919050565b60006124ee602c8361287e565b91506124f982612e82565b604082019050919050565b6000612511602e8361287e565b915061251c82612ed1565b604082019050919050565b612530816129bf565b82525050565b6000612542828461232f565b915081905092915050565b6000612559828561232f565b9150612565828461232f565b91508190509392505050565b6000602082019050612586600083018461229f565b92915050565b60006080820190506125a1600083018761229f565b6125ae602083018661229f565b6125bb6040830185612527565b81810360608301526125cd81846122bd565b905095945050505050565b60006020820190506125ed60008301846122ae565b92915050565b6000602082019050818103600083015261260d81846122f6565b905092915050565b6000602082019050818103600083015261262e81612360565b9050919050565b6000602082019050818103600083015261264e81612383565b9050919050565b6000602082019050818103600083015261266e816123a6565b9050919050565b6000602082019050818103600083015261268e816123c9565b9050919050565b600060208201905081810360008301526126ae816123ec565b9050919050565b600060208201905081810360008301526126ce8161240f565b9050919050565b600060208201905081810360008301526126ee81612432565b9050919050565b6000602082019050818103600083015261270e81612455565b9050919050565b6000602082019050818103600083015261272e81612478565b9050919050565b6000602082019050818103600083015261274e8161249b565b9050919050565b6000602082019050818103600083015261276e816124be565b9050919050565b6000602082019050818103600083015261278e816124e1565b9050919050565b600060208201905081810360008301526127ae81612504565b9050919050565b60006020820190506127ca6000830184612527565b92915050565b60006127da6127eb565b90506127e68282612a3d565b919050565b6000604051905090565b600067ffffffffffffffff8211156128105761280f612b75565b5b61281982612ba4565b9050602081019050919050565b600067ffffffffffffffff82111561284157612840612b75565b5b61284a82612ba4565b9050602081019050919050565b600081519050919050565b600081519050919050565b600082825260208201905092915050565b600082825260208201905092915050565b600081905092915050565b60006128a5826129bf565b91506128b0836129bf565b9250827fffffffffffffffffffffffffffffffffffffffffffffffffffffffffffffffff038211156128e5576128e4612ae8565b5b828201905092915050565b60006128fb826129bf565b9150612906836129bf565b92508261291657612915612b17565b5b828204905092915050565b600061292c826129bf565b9150612937836129bf565b92508282101561294a57612949612ae8565b5b828203905092915050565b60006129608261299f565b9050919050565b60008115159050919050565b60007fffffffff0000000000000000000000000000000000000000000000000000000082169050919050565b600073ffffffffffffffffffffffffffffffffffffffff82169050919050565b6000819050919050565b82818337600083830152505050565b60005b838110156129f65780820151818401526020810190506129db565b83811115612a05576000848401525b50505050565b60006002820490506001821680612a2357607f821691505b60208210811415612a3757612a36612b46565b5b50919050565b612a4682612ba4565b810181811067ffffffffffffffff82111715612a6557612a64612b75565b5b80604052505050565b6000612a79826129bf565b91507fffffffffffffffffffffffffffffffffffffffffffffffffffffffffffffffff821415612aac57612aab612ae8565b5b600182019050919050565b6000612ac2826129bf565b9150612acd836129bf565b925082612add57612adc612b17565b5b828206905092915050565b7f4e487b7100000000000000000000000000000000000000000000000000000000600052601160045260246000fd5b7f4e487b7100000000000000000000000000000000000000000000000000000000600052601260045260246000fd5b7f4e487b7100000000000000000000000000000000000000000000000000000000600052602260045260246000fd5b7f4e487b7100000000000000000000000000000000000000000000000000000000600052604160045260246000fd5b6000601f19601f8301169050919050565b7f455243373231456e756d657261626c653a206f776e657220696e646578206f7560008201527f74206f6620626f756e6473000000000000000000000000000000000000000000602082015250565b7f4552433732313a207472616e7366657220746f206e6f6e20455243373231526560008201527f63656976657220696d706c656d656e7465720000000000000000000000000000602082015250565b7f4552433732313a207472616e736665722066726f6d20696e636f72726563742060008201527f6f776e6572000000000000000000000000000000000000000000000000000000602082015250565b7f4552433732313a20746f6b656e20616c7265616479206d696e74656400000000600082015250565b7f4552433732313a207472616e7366657220746f20746865207a65726f2061646460008201527f7265737300000000000000000000000000000000000000000000000000000000602082015250565b7f4552433732313a20617070726f766520746f2063616c6c657200000000000000600082015250565b7f4552433732313a2061646472657373207a65726f206973206e6f74206120766160008201527f6c6964206f776e65720000000000000000000000000000000000000000000000602082015250565b7f4552433732313a20617070726f76652063616c6c6572206973206e6f7420746f60008201527f6b656e206f776e6572206e6f7220617070726f76656420666f7220616c6c0000602082015250565b7f4552433732313a206d696e7420746f20746865207a65726f2061646472657373600082015250565b7f4552433732313a20696e76616c696420746f6b656e2049440000000000000000600082015250565b7f4552433732313a20617070726f76616c20746f2063757272656e74206f776e6560008201527f7200000000000000000000000000000000000000000000000000000000000000602082015250565b7f455243373231456e756d657261626c653a20676c6f62616c20696e646578206f60008201527f7574206f6620626f756e64730000000000000000000000000000000000000000602082015250565b7f4552433732313a2063616c6c6572206973206e6f7420746f6b656e206f776e6560008201527f72206e6f7220617070726f766564000000000000000000000000000000000000602082015250565b612f2981612955565b8114612f3457600080fd5b50565b612f4081612967565b8114612f4b57600080fd5b50565b612f5781612973565b8114612f6257600080fd5b50565b612f6e816129bf565b8114612f7957600080fd5b5056fea2646970667358221220189e8608c32299a5ae7f0365609ace11d870a7ce8a5486d954b507a2117c0c7264736f6c63430008010033",
  "immutableReferences": {},
  "source": "pragma solidity 0.8.1; //Congelando verso do solidity\n\n//import \"@openzeppelin/contracts/token/ERC721/ERC721.sol\";\nimport \"@openzeppelin/contracts/token/ERC721/extensions/ERC721Enumerable.sol\";\n\n\ncontract Color is ERC721Enumerable{\n\n    string [] public colors;\n    /*\n    Verifica se a cor que foi passada j existe na lista de cores.\n\n    Isso vai ajudar a garantir que a mesma cor no seja salva mais\n    de uma vez.\n    */\n    mapping (string => bool) _colorExists; \n\n    constructor() ERC721(\"Color\", \"COLOR\") public {\n\n    }\n\n    // o \"_\" significa que a varivel  local\n    function mint (string memory _color) public {\n        /*\n            Require unique color\n            Color - add it\n            Call the mint function\n            Color - track it\n        */\n\n        //\"require\" quando  \"true\" no faz nada,mas quando  falso, lana uma exceo\n        require(!_colorExists[_color]);\n        colors.push(_color);\n        uint _id = colors.length - 1;\n\n        /*\n        \"_mint\" est no arquivo \"ERC721.sol\".\n\n        o parmetro \"msg.sender\" permite com que seja possvel \n        ver o \"etherium address\" da pessoa que fez a requisio.\n\n        \"_id\" ser o token id utilizado\n        */\n        _mint(msg.sender, _id);\n        _colorExists[_color] = true;\n    }\n\n}",
  "sourcePath": "/Users/jani/Desktop/CODIGOS_JANIEL/Smart-Contract/nft/src/contracts/Color.sol",
  "compiler": {
    "name": "solc",
    "version": "0.8.1+commit.df193b15.Emscripten.clang"
  },
  "schemaVersion": "3.4.9",
  "updatedAt": "2022-08-16T19:21:14.296Z",
  "networkType": "ethereum",
  "devdoc": {
    "kind": "dev",
    "methods": {
      "approve(address,uint256)": {
        "details": "See {IERC721-approve}."
      },
      "balanceOf(address)": {
        "details": "See {IERC721-balanceOf}."
      },
      "getApproved(uint256)": {
        "details": "See {IERC721-getApproved}."
      },
      "isApprovedForAll(address,address)": {
        "details": "See {IERC721-isApprovedForAll}."
      },
      "name()": {
        "details": "See {IERC721Metadata-name}."
      },
      "ownerOf(uint256)": {
        "details": "See {IERC721-ownerOf}."
      },
      "safeTransferFrom(address,address,uint256)": {
        "details": "See {IERC721-safeTransferFrom}."
      },
      "safeTransferFrom(address,address,uint256,bytes)": {
        "details": "See {IERC721-safeTransferFrom}."
      },
      "setApprovalForAll(address,bool)": {
        "details": "See {IERC721-setApprovalForAll}."
      },
      "supportsInterface(bytes4)": {
        "details": "See {IERC165-supportsInterface}."
      },
      "symbol()": {
        "details": "See {IERC721Metadata-symbol}."
      },
      "tokenByIndex(uint256)": {
        "details": "See {IERC721Enumerable-tokenByIndex}."
      },
      "tokenOfOwnerByIndex(address,uint256)": {
        "details": "See {IERC721Enumerable-tokenOfOwnerByIndex}."
      },
      "tokenURI(uint256)": {
        "details": "See {IERC721Metadata-tokenURI}."
      },
      "totalSupply()": {
        "details": "See {IERC721Enumerable-totalSupply}."
      },
      "transferFrom(address,address,uint256)": {
        "details": "See {IERC721-transferFrom}."
      }
    },
    "version": 1
  },
  "userdoc": {
    "kind": "user",
    "methods": {},
    "version": 1
  }
}